:020000040800F2
:100000000080002061250008392300083B230008F8
:100010003D2300083F2300084123000800000000A2
:100020000000000000000000000000004323000862
:10003000452300080000000047230008492300086A
:10004000B1250008B1250008B1250008B125000838
:10005000B1250008B1250008B1250008B125000828
:10006000B1250008B1250008B1250008B125000818
:10007000B1250008B1250008B1250008B125000808
:10008000B125000800000000B1250008B1250008D6
:1000900051230008B1250008B1250008B12500084A
:1000A000B1250008B1250008B1250008B1250008D8
:1000B000B1250008B1250008B1250008B1250008C8
:1000C000B1250008B1250008B1250008B1250008B8
:1000D000B1250008B1250008B1250008B1250008A8
:1000E000B1250008B1250008B1250008B125000898
:1000F000B1250008B1250008B12500080000000066
:1001000000000000B125000800000000B125000833
:10011000B125000800000000B1250008B125000845
:10012000B1250008B1250008B1250008B125000857
:10013000B12500080000000000000000B125000803
:10014000B1250008B12500080000000000000000F3
:10015000000000000000000000000000000000009F
:10016000000000000000000000000000B1250008B1
:10017000B1250008000000000000000000000000A1
:1001800000000000B1250008000000000000000091
:10019000000000000000000000000000000000005F
:1001A0000000000000000000B1250008B125000893
:1001B000B1250008B1250008B125000800000000A5
:1001C00000000000B1250008000000000000000051
:0801D000B1250008B12500086B
:100200000348044B834202D0034B03B118477047A5
:10021000C4090020C4090020000000000548064968
:100220000B1AD90F01EBA301491002D0034B03B104
:1002300018477047C4090020C409002000000000CE
:1002400010B5064C237843B9FFF7DAFF044B13B11E
:100250000448AFF300800123237010BDC4090020BF
:1002600000000000307C000808B5044B1BB10449B5
:100270000448AFF30080BDE80840CFE7000000006D
:10028000C8090020307C0008002301461A461846A1
:1002900000F044B9014B1868704700BF000000200F
:1002A00038B5084B084D5B1B9C1007D0043B1D4420
:1002B000013C55F804399847002CF9D1BDE8384085
:1002C00007F0BCBCF07C0008EC7C000870B50D4E5B
:1002D0000D4D761BB61006D0002455F8043B0134B2
:1002E0009847A642F9D1094E094D761B07F0A0FCAC
:1002F000B61006D0002455F8043B01349847A642B6
:10030000F9D170BDE47C0008E47C0008EC7C0008B6
:10031000E47C0008830730B548D0541E002A3FD043
:10032000CAB2034601E0013C3AD303F8012B9D0712
:10033000F9D1032C2DD9CDB245EA05250F2C45EA7C
:10034000054536D9A4F1100222F00F0C03F1200E5E
:10035000E6444FEA121C03F1100242E9045542E957
:10036000025510327245F8D10CF1010214F00C0F55
:1003700003EB021204F00F0C13D0ACF1040323F0D2
:1003800003030433134442F8045B9342FBD10CF0A3
:1003900003042CB1CAB21C4403F8012B9C42FBD1CC
:1003A00030BD64461346002CF4D1F9E703461446E9
:1003B000BFE71A46A446E0E770B5044688B0084691
:1003C0000D4600F03DF8154EA26B05900121431833
:1003D000CDE9066104A8022104950393A568019064
:1003E0000291B2B1B5F90C309A0406D46A6E43F4A6
:1003F000005322F40052AB816A6601AA29462046C6
:1004000000F0CCF9002814BF4FF0FF300A2008B0EC
:1004100070BD204600F0A2F9E4E700BFE07C0008D0
:10042000024B01461868FFF7C7BF00BF000000205D
:1004300000000000000000000000000000000000BC
:1004400090F800F06DE9024520F007016FF0000C14
:1004500010F0070491F820F040F049804FF00004BC
:100460006FF00700D1E9002391F840F000F1080097
:1004700082FA4CF2A4FA8CF283FA4CF3A2FA8CF3CF
:100480004BBBD1E9022382FA4CF200F10800A4FA36
:100490008CF283FA4CF3A2FA8CF3E3B9D1E904238A
:1004A00082FA4CF200F10800A4FA8CF283FA4CF3C1
:1004B000A2FA8CF37BB9D1E9062301F1200182FA7B
:1004C0004CF200F10800A4FA8CF283FA4CF3A2FA81
:1004D0008CF3002BC6D0002A04BF04301A4612BA8F
:1004E000B2FA82F2FDE8024500EBD2007047D1E992
:1004F000002304F00305C4F100004FEAC50514F021
:10050000040F91F840F00CFA05F562EA05021CBFF1
:1005100063EA050362464FF00004A9E770B4184C83
:100520002568D5F848411CB365681F2D25DC38B90E
:10053000AB1C0135656044F82310002070BC704787
:1005400004EB850C0228CCF88820D4F888614FF0A1
:10055000010202FA05F246EA0206C4F88861CCF804
:100560000831E5D1D4F88C311343C4F88C31DFE77E
:1005700005F5A674C5F84841D6E74FF0FF30DDE732
:10058000487C000800207047014900F09BBA00BF7A
:1005900049190008002070472DE9F84F2D4A466898
:1005A000C26300240323C0E9B843074600F53B7249
:1005B0000423C0F8E8222146C6E902430822C6E91E
:1005C0000044C6E904447466B46106F15C00FFF7B8
:1005D000A1FEDFF884B0BD68DFF880A0DFF880906E
:1005E000DFF88080204BC6F824A0C6E9076BC6F868
:1005F0002890C6F82C800822EB60C5E90044C5E9C4
:1006000004446C66AC60AC61214605F15C00FFF708
:1006100081FEC5E9075BC5E909A9C5F82C80FD681D
:10062000124BEB60C5E90044C5E904446C66AC605C
:10063000AC612146082205F15C00FFF76BFE012347
:10064000C5E9075BC5E90A98C5F824A0BB63BDE806
:10065000F88F00BF890500083117000859170008F6
:1006600099170008B91700080900010012000200DC
:1006700070B568224D1E02FB05F50E4605F17401AA
:1006800000F044FA044640B100210C30C4E90016E1
:10069000A06005F16802FFF73DFE204670BD00BF77
:1006A000274B2DE9F0411E68B36B07465BB306F597
:1006B00038764FF00408D6E90134013B04D51EE03A
:1006C0005A1C04F168041AD0B4F90C50013B002DF7
:1006D000F6D11C4B6566C4E90055C4E90253C4E970
:1006E0000455A5610822294604F15C00FFF712FEBB
:1006F000C4E90C55C4E911552046BDE8F0813568C0
:100700002DB12E46D7E73046FFF746FFCFE74FF42F
:10071000D671384600F0FAF9044668B10560C0F8B1
:1007200004800C302946A06025464FF4D072FFF7B4
:10073000F1FD34602E46BEE70C2330603B60DBE702
:10074000487C00080100FFFF024B0349186800F0D5
:10075000B9B900BF487C000849190008836B03B190
:10076000704719E7704700BF704700BF704700BF70
:10077000704700BF024B0349186800F083B900BFFF
:100780000000002085050008024B0349186800F0AE
:1007900079B900BF00000020950500089368002B80
:1007A00000F081802DE9F04FB1F90C300C461907AB
:1007B000804683B0174698B223D523690BB310F057
:1007C00002033D682BD04FF0000ADFF8B4B2564662
:1007D0005E453346524628BF5B464046002E4FD00A
:1007E000E169D4F824C0E047002852DDBB681B1A39
:1007F0008244361ABB60002BEAD1002003B0BDE86A
:10080000F08F2146404600F0F1FF002840F034818F
:10081000B4F90C303D6898B210F00203D3D110F057
:10082000010942D14E463EB38205D4F808B040F1EA
:100830008180B3455A4600F2B18010F4906F40F0C9
:10084000BE8020680192494600F0F4FCA36821684C
:10085000019AA3EB0B030A44B246A3602260002670
:10086000B868A0EB0A00D144B8600028C5D0B4F93C
:100870000C0080B2002ED7D1D5E900960835D2E71A
:10088000D5E900A60835A3E72146404601F024F942
:1008900080B3B4F90C3043F040034FF0FF30A38134
:1008A00003B0BDE8F08F002070471E46AA46994667
:1008B00018461D4656B388B34A46D4E90413206847
:1008C000B24228BF3246884205D9A16803EB010B2A
:1008D0005A4500F3A780934264DCE169D4F824C050
:1008E0002A464046E047B0F1000BD2DDB9EB0B09D8
:1008F000CAD00120BB68A3EB0B035D44A6EB0B063B
:10090000BB60002B3FF479AF002ED4D10AF108036D
:1009100053E902569A460833002EF9D032460A218E
:10092000284600F09DFB002800F09D800130A0EBE0
:100930000509C1E720682369984217D86369B34263
:1009400014D86FF00042B24228BF3246E16992FBF0
:10095000F3F2D4F824C002FB03F340464A46E047D2
:10096000B0F1000A95DDA6EB0A0679E7B345DA4651
:1009700028BFB2465246494600F05CFCA368226894
:10098000A3EB0A035244A3602260002BEBD1214663
:10099000404601F0A1F80028E5D07AE72068B34688
:1009A00032464FE72946019200F044FC019AA368C1
:1009B0009B1AA360236813442360934696E7236839
:1009C0002169A3EB010B636903EB430A0AEBDA7AB3
:1009D0000BF101034FEA6A0A33445345524684BF80
:1009E0009A46524643052CD51146404600F08EF8F3
:1009F00000283BD05A462169019000F081FBA28972
:100A0000019B22F4906242F08002A28103EB0B0072
:100A10002361AAEB0B03C4F814A0A3602060B346C3
:100A200032460FE729465A4600F004FC23685B442F
:100A300023602146404601F04FF800283FF456AFAE
:100A400027E7404600F076FC03460028DED1216906
:100A5000404601F0CFF8B4F90C300C2223F08003AB
:100A6000C8F8002017E7721C914626E70C22B4F95B
:100A70000C30C8F800200EE74FF0FF30BEE600BF94
:100A800000FCFF7F2DE9F041884600F5387700260D
:100A9000D7E90154013D0FD4A389012B05F1FF359E
:100AA00006D9B4F90E300133204601D0C0470643C1
:100AB0006B1C04F16804EFD13F68002FE8D1304689
:100AC000BDE8F0812DE9F8430746884600F5387601
:100AD0004FF00009D6E90154013D11D4A389012B3F
:100AE00005F1FF3508D9B4F90E300133214603D0A2
:100AF0003846C04749EA00096B1C04F16804EDD18F
:100B00003668002EE6D14846BDE8F8832DE9F04F5F
:100B100001F10B06162E83B0044624D8102900F2EA
:100B2000BA8000F003FC102618220220B74F3A4486
:100B3000A2F1080153688B4200F0BA805A68D96864
:100B400022F003021A449D68E9608D60516841F00B
:100B500001012046516003F1080500F0E9FB284639
:100B600003B0BDE8F08F36F0070600F19480B14283
:100B700000F2918000F0DAFBB6F5FC7FC0F09681C0
:100B8000730A00F08F80042B00F26B81B30903F12C
:100B9000390003F1380CC3009C4F3B44A3F1080516
:100BA0005B689D4206D10CE0002980F22B81DB6856
:100BB0009D4206D05A6822F00302911B0F29F3DDF3
:100BC00060463D69DFF848C265457CD06A6822F01E
:100BD0000302931B0F2B00F37781002BC7E904CC92
:100BE00080F26881B2F5007F80F01681D3087968C1
:100BF00001334FEA521E012202FA0EF20A4357F85D
:100C000033E0C5F808E007EBC3010839E9607A6012
:100C100047F83350CEF80C5083100121994091428F
:100C200057D8114206D120F003004900114200F1CB
:100C30000400FAD007EBC0094D468646D5F80C8073
:100C4000454508D119E1002B80F22081D8F80C80AD
:100C5000454500F01281D8F8042022F00302931BCE
:100C60000F2BF0DD2046D8E9025408EB060146F0D0
:100C70000106C8F80460EC60A56043F00104C7E910
:100C80000411C1E902CC4C6048F8023000F050FB7E
:100C900008F1080502E00C2323600025284603B074
:100CA000BDE8F08F4FF4007340204FF03F0C73E726
:100CB000D3689A4208BF02307FF440AF3D69DFF845
:100CC00050C1654582D17A688310012199409142D3
:100CD000A7D9BD686B6823F00308464503D8A8EB85
:100CE00006030F2B7EDCDFF82C91D7F80824D9F807
:100CF00000300132334405EB080A00F02F8103F580
:100D000080530F3323F47F6B2BF00F0B5946204693
:100D100000F0FCFC411C024600F0EF80824500F22E
:100D2000EA80D9F804105944C9F804100B4600F0C1
:100D30004B81D7F8081401311BBFA2EB0A0A5344B8
:100D4000C7F80824C9F8043012F0070300F0128134
:100D5000C3F108010A44C3F5805193440831A1EB63
:100D60000B01C1F30B0A514620460192009300F09B
:100D7000CDFC421CDDE9003200F04B81831A03EB0D
:100D80000A0BD9F80400BA604BF001030AEB00012A
:100D9000BD425360C9F8041000F02281B8F10F0F72
:100DA00040F220816B68A8F10C0020F0070003F0EE
:100DB000010303436B604FF0050C2B180F28C3E9A8
:100DC00001CC00F22D8153681546D9F82C208A42B7
:100DD000D9F8302038BFC9F82C108A4238BFC9F87A
:100DE00030108CE0AA1943F0010346F001066E6052
:100DF0002046BA60536000F09BFA0835284603B0DD
:100E0000BDE8F08FD9681A449DE600BF3004002089
:100E100038040020E0090020B2F5206F4FEA522389
:100E200063D3142B00F2B88003F15C01C9005B337B
:100E300007EB010E7958AEF1080E8E4500F0918057
:100E40004B6823F00303934202D989688E45F7D19A
:100E5000D1F80CE07A68C5E9021ECEF80850CD60E2
:100E6000DAE6142B59D9542B00F29E80330B03F190
:100E70006F0003F16E0CC3008EE60EF1010E1EF042
:100E8000030F05F108057FF4D9AE51E04244454611
:100E90005368D8F80C1043F00103536055F8083F2D
:100EA0002046D9608B6000F043FAF7E6F00806F1BF
:100EB00008023BE62A442046536843F0010353608E
:100EC000083500F035FAE9E6A919204646F0010692
:100ED00043F001046E60C7E90411C1E902CC4C6023
:100EE000AB5000F025FA0835D8E6930903F1390133
:100EF000C90038339CE7BD4260D0BD686B6823F001
:100F0000030B5E45ABEB060302D80F2B3FF76AAF2E
:100F1000204600F00DFA0025C0E603F15C0003F165
:100F20005B0CC30038E659F808394B4540F0968011
:100F300010F0030F00F1FF30F5D17B6823EA0103C5
:100F40007B60490099423FF6C4AE19B9C1E6490039
:100F50000EF1040E1942FAD070466BE603F1100B45
:100F6000D4E69A104FF001087B6808FA02F21A439F
:100F70007A6070E702EB0B014942C1F30B0A51465C
:100F800020460193009200F0C1FB431CDDE90023E1
:100F90007FF4F4AE9A46F4E6542B26D8130B03F1F3
:100FA0006F01C9006E3343E7B3F5AA7F26D8F30B70
:100FB00003F1780003F1770CC300EDE5D9F80430B4
:100FC0005B44C9F80430B4E6CAF30B0000287FF490
:100FD000B0AEBD6808EB0B0343F001036B60F4E6B1
:100FE0001546F2E60123536092E7B3F5AA7F21D8B4
:100FF000D30B03F17801C900773319E740F254525B
:10100000934221D8B30C03F17D0003F17C0CC300A3
:10101000C2E5083B9B44ABEB020B4FF0000AB0E685
:1010200005F10801204600F0E5FDBD68D9F804107F
:101030006B68CAE640F254518B420BD8930C03F113
:101040007D01C9007C33F3E64FF47E737F204FF0BF
:101050007E0CA1E54FF47E717E23E9E67B6870E7A4
:1010600001F0FF01102A2BDB10F0070F08D010F859
:10107000013B013A8B422DD010F0070F42B3F6D15D
:10108000F0B441EA012141EA014122F007047FF076
:1010900000070023F0E80256083C85EA010586EACD
:1010A000010685FA47F5A3FA87F586FA47F6A5FA09
:1010B00087F68EB9EED1F0BC01F0FF0102F0070215
:1010C00032B110F8013B013A83EA010313B1F8D1C0
:1010D0000020704701387047002D06BF35460338A1
:1010E000073815F0010F07D1013015F4807F02BFDA
:1010F000013015F4C03F0130F0BC0138704700BF2B
:10110000844641EA000313F003036DD1403A41D312
:1011100051F8043B40F8043B51F8043B40F8043BD1
:1011200051F8043B40F8043B51F8043B40F8043BC1
:1011300051F8043B40F8043B51F8043B40F8043BB1
:1011400051F8043B40F8043B51F8043B40F8043BA1
:1011500051F8043B40F8043B51F8043B40F8043B91
:1011600051F8043B40F8043B51F8043B40F8043B81
:1011700051F8043B40F8043B51F8043B40F8043B71
:1011800051F8043B40F8043B51F8043B40F8043B61
:10119000403ABDD2303211D351F8043B40F8043B01
:1011A00051F8043B40F8043B51F8043B40F8043B41
:1011B00051F8043B40F8043B103AEDD20C3205D311
:1011C00051F8043B40F8043B043AF9D2043208D009
:1011D000D2071CBF11F8013B00F8013B01D30B887B
:1011E00003806046704700BF082A13D38B078DD059
:1011F00010F003038AD0C3F10403D21ADB071CBF2B
:1012000011F8013B00F8013B80D331F8023B20F894
:10121000023B7BE7043AD9D3013A11F8013B00F8CD
:10122000013BF9D20B7803704B7843708B78837055
:101230006046704788420DD98B1883420AD900EB6B
:10124000020CBAB1624613F801CD02F801CD994201
:10125000F9D170470F2A0ED8034602F1FF3C4AB17C
:101260000CF1010C013B8C4411F8012B03F8012F08
:101270006145F9D1704740EA01039B0750D1A2F1C3
:10128000100370B501F1200C23F00F0501F1100ED1
:1012900000F11004AC441B095EF8105C44F8105CCB
:1012A0005EF80C5C44F80C5C5EF8085C44F8085C82
:1012B0005EF8045C44F8045C0EF1100EE64504F19F
:1012C0001004E9D1013312F00C0F01EB031102F00D
:1012D0000F0400EB031327D0043C24F003064FEA6D
:1012E000940C1E441C1F8E465EF8045B44F8045F99
:1012F000B442F9D10CF1010402F0030203EB8403C0
:1013000001EB840102F1FF3C4AB10CF1010C013BFD
:101310008C4411F8012B03F8012F6145F9D170BD00
:1013200002F1FF3C03469BE72246EBE7704700BF14
:10133000704700BF2DE9F84F1746002900F098804C
:1013400007F10B0580460C46FFF7F0FF162D5DD820
:1013500010252A46AF425ED854F8041C21F003063B
:101360009642A4F1080962DABC4BD3F808C009EB35
:101370000600844500F09780D0F804C02CF00103EB
:1013800003445B68DB0768D42CF0030C06EB0C030A
:10139000934247DACB0710D454F8083CA9EB030A70
:1013A000DAF8043023F003018C44B444944580F20D
:1013B00011817318934280F2E88039464046FFF766
:1013C000A5FB0746E0B154F8043C23F001034B446D
:1013D000A0F10802934200F0D280321F242A00F2CA
:1013E000F580132A00F2AC8003462246116819608A
:1013F0005168596092689A602146404600F0FAFBB5
:101400004046FFF795FF3846BDE8F88F25F0070501
:10141000002D2A469EDA0C23C8F8003000273846F3
:10142000BDE8F88F1E46D0E90223D3609A60731B93
:101430000F2B22D8D9F8043003F0010333434E4474
:10144000C9F80430736843F00103736040462746CF
:10145000FFF76EFF3846BDE8F88FC907ADD454F8E2
:10146000083CA9EB030ADAF8041021F00301A0E715
:10147000BDE8F84F1146FFF749BBD9F8041001F059
:1014800001012943C9F8041009EB05014E4443F05A
:1014900001034B60736843F00103083173604046F9
:1014A00000F0A8FBD2E7DCF8040020F0030B06EB09
:1014B0000B0C05F1100084454DDAC9073FF57DAFEF
:1014C00054F8081CA9EB010ADAF8041021F0030112
:1014D0008B44B34458453FF76CAF5746DAF80C10CD
:1014E00057F8080F321F242AC160886000F2DB80A1
:1014F000132A40F2D6802168CAF808106168CAF839
:101500000C101B2A00F2DF8008340AF11002216857
:10151000116061685160A16891600AEB0501ABEB55
:10152000050242F0010299604A60DAF8043003F0E3
:1015300001031D434046CAF80450FFF7F9FE6EE769
:1015400023680360636843601B2A68D804F10802BB
:1015500000F108034AE709EB05029A60ACEB0503CA
:1015600043F00103536054F8043C03F001031D43AE
:10157000404644F8045CFFF7DBFE27464FE750F88F
:10158000043C23F003031E4451E75746DAF80C10DD
:1015900057F8080F321F242AC16088604CD8132ADC
:1015A00048D92168CAF808106168CAF80C101B2ACB
:1015B00056D808340AF110021E4623681360636887
:1015C0005360A3689360D1463C4630E72146FFF75D
:1015D00031FE11E7D0E902135746CB60996057F806
:1015E000081FDAF80C30CB60321F242A99602DD8FE
:1015F000132A29D92368CAF808306368CAF80C305E
:101600001B2A42D808340AF1100322681A60626863
:101610005A60A2689A606646D1463C4607E7A368CE
:101620008360E368C360242A26D004F1100200F12D
:101630001003DBE63A46BFE7214638461E46D14650
:10164000FFF7F8FD3C46F2E63B46DEE7214638462A
:101650006646D146FFF7EEFD3C46E8E63004002042
:10166000A168CAF81010E168CAF81410242A20D022
:1016700010340AF118029FE723690361616941612F
:1016800004F1180200F11803B0E6A368CAF810309C
:10169000E368CAF81430242A21D010340AF1180360
:1016A000B3E73A4633E721463846FFF7C3FD164B0A
:1016B00033E72269CAF818206269CAF81C20183476
:1016C0000AF1200278E7A168CAF81010E168CAF8A8
:1016D0001410242A0DD010340AF1180217E72369D8
:1016E000CAF818306369CAF81C3018340AF12003AC
:1016F0008BE72269CAF818206269CAF81C201834DE
:101700000AF1200203E700BF3004002038B5074D7E
:101710000022044608462A6000F03EFE431C00D02A
:1017200038BD2B68002BFBD0236038BD140A002085
:1017300010B50C46B1F90E1000F018FC002803DBC0
:10174000236D0344236510BDA38923F48053A38133
:1017500010BD00BF002070472DE9F0410C46B1F9E3
:101760000C101F46CB05054616460BD421F48051BC
:10177000A1813B46B4F90E1032462846BDE8F0413F
:1017800000F01EB8B4F90E100223002200F038FB5E
:10179000B4F90C10EAE700BF10B50C46B1F90E1011
:1017A00000F02EFBA389421C0EBF23F4805343F4A8
:1017B00080532065A38110BDB1F90E1000F080B8F0
:1017C00038B50C46084D8446114620461A4600237B
:1017D0002B60644606F01AFA431C00D038BD2B6813
:1017E000002BFBD0236038BD140A002038B5334BE2
:1017F0001B6805460C460BB19A6B12B3B4F90C305A
:1018000018079AB225D5216900292DD012F00100C0
:1018100007D00020A06060694042A06139B100207B
:1018200038BD950758BF6069A0600029F7D112063E
:1018300058BF0846F4D543F04003A3814FF0FF3072
:1018400038BD1846FEF78AFFB4F90C3018079AB273
:10185000D9D4D1062AD5520714D4216943F00803FC
:10186000A3819AB20029D1D102F42070B0F5007F93
:10187000CCD02146284600F0D9FAB4F90C302169C1
:101880009AB2C3E7216B51B104F14002914204D0F6
:10189000284600F0AFF9B4F90C3000222263216928
:1018A0000022C4E9001223F02403D7E7092243F001
:1018B00040032A604FF0FF30A38138BD00000020B4
:1018C00038B5074D0022044608462A6000F058FD4E
:1018D000431C00D038BD2B68002BFBD0236038BDE3
:1018E000140A002070B50C46064600F065F8E36A5D
:1018F000054633B1E169304698470028B8BF4FF03C
:10190000FF35A3891B0619D4216B41B104F14003B3
:10191000994202D0304600F06DF900232363616CD8
:1019200021B1304600F066F900236364FEF71AFF28
:101930000023A381FEF718FF284670BD21693046B9
:1019400000F058F9E0E700BFB1B138B505460C46E4
:1019500008B1836B4BB1B4F90C300BB9002038BD22
:1019600021462846BDE83840BCE7FEF7F7FEB4F94B
:101970000C30002BF2D0F3E700207047C0B138B52F
:101980000C4B1D6804460DB1AB6B4BB1B4F90C3078
:101990000BB9002038BD21462846BDE83840A1E7F4
:1019A0002846FEF7DBFEB4F90C30002BF1D0F2E74D
:1019B0000020704700000020B1F90C20F8B50C465B
:1019C0001107074642D4636842F40062002BA281EB
:1019D00059DDA56A002D54D000233E683B6093B2C8
:1019E00012F4805253D1E16901233846A847421CC2
:1019F00063D0A389A56A5B0705D56368C01A236B0A
:101A00000BB1E36BC01AE169024600233846A847D0
:101A1000411C3ED13B68002B3BD01D2B01D0162B27
:101A200052D1A3892269226023F4006300216160FE
:101A3000A381216B3E6021B304F14003994202D09F
:101A4000384600F0D7F800202063F8BD2669C6B1FB
:101A500093B2256826609A070CBF63690023AD1B0B
:101A6000A3600CE0D4F824C0E1692B463246384626
:101A7000E047B0F1000CA5EB0C05664416DD002D27
:101A8000F0DC0020F8BDE36B002BA2DCF9E7206D51
:101A9000B1E7B4F90C302269226023F40063A3811A
:101AA0000022DB046260C4D52065C2E7A38943F04D
:101AB00040034FF0FF30A381F8BD3B68002B98D066
:101AC0001D2B06D0162B04D0A38943F04003A3811D
:101AD000F8BD3E60D5E700BF38B50D46044608B1F5
:101AE000836B1BB1B5F90C0030B938BDFEF736FE7B
:101AF000B5F90C000028F8D029462046BDE838404A
:101B0000FFF75ABF38B5B8B10F4B1D6804460DB189
:101B1000AB6B4BB1B4F90C0000B938BD2146284677
:101B2000BDE83840FFF748BF2846FEF717FEB4F976
:101B30000C000028F1D0F1E7044B05491868BDE816
:101B40003840FEF7BFBF00BF00000020487C0008FF
:101B5000D91A0008F8B5244F0C460646FFF7E6FBF5
:101B6000BA685568C4F57E630F3325F003052B442E
:101B700023F47F6323F00F03A3F58054B4F5805F53
:101B800007DB00213046FFF7C1FDBB682B449842BC
:101B900004D03046FFF7CCFB0020F8BD6142304650
:101BA000FFF7B4FD01300DD0104ABB682D1B45F086
:101BB00001055D60136830461B1B1360FFF7B8FB1F
:101BC0000120F8BD00213046FFF7A0FDBA68831A56
:101BD0000F2BDEDD43F001035360054B03491B6807
:101BE000C01A0860D5E700BF30040020E4090020D7
:101BF00038080020002961D0F8B50C460646FFF7EA
:101C000095FB54F8042C7B4FA4F1080522F0010148
:101C100005EB010CB868DCF80430604523F00303E1
:101C200000F08B80D207CCF8043032D454F8082C62
:101C3000AD1A1144AA6807F1080082426AD00CEB81
:101C40000304D4F804E0EC68D4601EF0010FA26035
:101C500000F0978041F001036B60CCF80010B1F503
:101C6000007F35D27A68CB084809012101338140D1
:101C70001143796007EBC30257F83310083AC5E9FE
:101C8000021247F83350CD603046BDE8F840FFF708
:101C90004FBB0CEB03025268D00710D4194407F174
:101CA0000800DCF80830834273D0DCF80C20DA60DE
:101CB000936041F001036B606950D0E7704741F0D9
:101CC0000103B1F5007F44F8043CCCF80010C9D3FF
:101CD000B1F5206F4FEA512348D28B0903F1390047
:101CE00003F13802C300F818FB580838984259D05D
:101CF0005A6822F003028A4202D99B689842F7D1BF
:101D0000D868C5E902308560DD603046BDE8F8403E
:101D1000FFF70EBB0CEB03025268D20763D40B44EF
:101D2000DCE90212CA60916043F001026A60304649
:101D3000EB50BDE8F840FFF7FBBA0B44D10707D4DE
:101D400054F8082CAD1A1344D5E90212CA60916008
:101D500043F001026A60284ABD6012689A4293D833
:101D6000264B30461968FFF7F5FE8DE7142B0AD98C
:101D7000542B1FD80B0B03F16F0003F16E02C3004D
:101D8000B1E719448DE703F15C0003F15B02C30086
:101D9000A9E741F00103C7E90455C5E902006B60FA
:101DA000695071E779689210012404FA02F20A433B
:101DB0007A60A6E7B3F5AA7F06D8CB0B03F17800CB
:101DC00003F17702C3008EE740F25452934206D8E3
:101DD0008B0C03F17D0003F17C02C30083E74FF419
:101DE0007E737E227FE741F001036B60CCF8001028
:101DF0004AE700BF300400203C080020E009002032
:101E000038B50C46084D8446114620461A46002334
:101E10002B60644600F0BEFA431C00D038BD2B682E
:101E2000002BFBD0236038BD140A00202DE9F041BF
:101E30008B890C46990796B008D504F1430301221B
:101E4000C4E90432236016B0BDE8F081B4F90E1085
:101E50000029064627DB6A4600F09EF8002821DBB1
:101E6000019D05F47045A5F50055B5FA85F54FF4CB
:101E700080686D094FF4006741463046FEF746FE24
:101E8000B4F90C30F0B1204AF26343F08003C4F897
:101E90001480A3812060206135BB3B43A38116B031
:101EA000BDE8F081A38913F0800519D04FF04008F8
:101EB00041463046FEF72AFE0025B4F90C302F4685
:101EC0000028E0D19A05BED423F0030304F14302B5
:101ED00043F002030121C4E90421A3812260B2E797
:101EE0004FF480682F46C7E7B4F90E10304600F073
:101EF00069F810B9B4F90C30CFE7A38923F00303D4
:101F000043F001031BB2C8E78905000870B50C4611
:101F1000B1F90E10002996B015461E4614DB6A462C
:101F200000F03AF800280FDB019A02F47042A2F5A3
:101F30000052B2FA82F24FF4806352094FF400600B
:101F400032602B6016B070BDB4F90C10002311F094
:101F50008000336004D0402218462A6016B070BD5D
:101F60004FF480632B6016B070BD00BF38B50C46CF
:101F7000084D8446114620461A4600232B606446CD
:101F800000F0EEF9431C00D038BD2B68002BFBD0CD
:101F9000236038BD140A002070B50C46084D034676
:101FA0000026204611461C462E6000F0ECF9431C2A
:101FB00000D070BD2B68002BFBD0236070BD00BF2C
:101FC000140A002038B5074D0022044608462A604E
:101FD00000F0DEF9431C00D038BD2B68002BFBD08D
:101FE000236038BD140A002070B588B00024039423
:101FF00004940594069407941E4BDA6C42F0200278
:10200000DA64DA6C02F020020092009ADA6C42F094
:102010000102DA64DA6C02F001020192019ADA6CD0
:1020200042F00202DA64DB6C03F002030293029BCB
:1020300022461C214FF0904000F074FC0E4D2246C9
:102040001021284600F06EFC1C2303930126049601
:102050000594069403A94FF0904000F075FB1023FF
:10206000039304960594069403A9284600F06CFB9C
:1020700008B070BD001002400004004808B51248C6
:10208000124B0360124B4360002383600122C26045
:10209000036143618361C361036200F048FC50B98E
:1020A0000021094800F0A1FC40B90021064800F0D9
:1020B000CAFC30B908BD00F067F8F1E700F064F839
:1020C000F3E700F061F8F5E7180A0020005400403B
:1020D0005D3E3020F0B59BB004460021159116916D
:1020E000179118911991442204A8FEF713F9226858
:1020F000224B9A4201D01BB0F0BD4023049304A8A8
:1021000002F034F9002835D11D4CE36C43F0010393
:10211000E364E36C03F001030193019BE36C43F080
:102120000203E364E36C03F002030293029B4FF4A7
:102130000043159312271697002517951895042626
:10214000199615A94FF0904000F0FEFA80231593E0
:10215000169717951895199615A90A4800F0F4FADC
:10216000A36D43F40013A365A36D03F4001303935D
:10217000039BC0E700F008F8C6E700BF005400402A
:10218000001002400004004872B6FEE700B595B0AA
:102190003822002106A8FEF7BDF800230193029320
:1021A0000393049305934FF4007001F071FC012236
:1021B00006924FF48033079302230D9303210E916F
:1021C0000F920C22109211931293139306A801F010
:1021D00019FD78B90F23019303230293002303937E
:1021E00004930593012101A801F0C4FF20B915B0A3
:1021F0005DF804FBFFF7C8FFFFF7C6FF08B500F066
:1022000001FAFFF7C3FFFFF7EFFEFFF737FF00F01C
:102210001DF800F027F905F037F805F0A1FA0A4C8F
:1022200000221021204600F07DFB4FF4FA7000F0F0
:102230000BFA01221021204600F074FB4FF4FA70D3
:1022400000F002FAEBE700BF0004004808B51148AF
:10225000114B03604FF4827343604FF4004383607B
:102260004FF44073C3600023036143614FF4007275
:1022700082610822C2610362436283620721C162F4
:102280000363426302F0F9FA00B908BDFFF77CFF6F
:10229000FBE700BF640A00200030014000B589B0B0
:1022A0000023039304930593069307930268134B4B
:1022B0009A4202D009B05DF804FB03F560431A6E40
:1022C00042F480521A661A6E02F480520192019A08
:1022D000DA6C42F00102DA64DB6C03F00103029372
:1022E000029BA0230393022304930523079303A9CE
:1022F0004FF0904000F028FADCE700BF00300140CA
:1023000000B583B00B4B1A6E42F001021A661A6ECA
:1023100002F001020092009A9A6D42F080529A6592
:102320009B6D03F080530193019B01F037FC03B0D8
:102330005DF804FB00100240FEE7FEE7FEE7FEE763
:10234000FEE770477047704708B500F06BF908BDAD
:1023500008B5024801F059F908BD00BFF017002088
:1023600070B50C461646002506E0AFF30080214606
:1023700001F8010B01350C46B542F6DB304670BD65
:102380004FF0FF3070474FF400534B600020704710
:10239000012070470020704710B503460C4A0D49D4
:1023A0000D48006840B10C4800680344521A93423B
:1023B00006D8094A136010BD0748084C0460F2E7CC
:1023C000FDF768FF0C2303604FF0FF30F3E700BF19
:1023D0000080002000040000C80A0020101D00201A
:1023E000704700000268094B9A4200D0704782B0E3
:1023F00003F564431A6E42F400621A661B6E03F41E
:1024000000630193019B02B0704700BF002C0140A4
:1024100000B587B0002301930293039304930593BF
:1024200002680F4B9A4202D007B05DF804FB03F537
:102430006443DA6C42F00102DA64DB6C03F00103FE
:102440000093009B4FF480730193022302930623B1
:10245000059301A94FF0904000F076F9E4E700BF42
:10246000002C014010B59CB00024189419941A94C3
:102470001B941594169417940E940F941094119421
:102480001294139414943422214601A8FDF742FFBC
:102490003148324B03602F234360846040F2E733BE
:1024A000C36004614461846102F02EFD002841D1C3
:1024B0004FF48053189318A9274802F075FE00289E
:1024C0003BD1254802F050FD002839D10023159357
:1024D0001693179315A9204803F01AF8002832D153
:1024E00060230E9300220F92109211921292139277
:1024F00014920EA9184802F0ADFD38BB00230193D9
:1025000002930393049305934FF4005206920793AA
:10251000089309934FF000720A920B930C930D935A
:1025200001A90D4803F03EF898B90B48FFF770FF7A
:102530001CB010BDFFF728FEBAE7FFF725FEC0E785
:10254000FFF722FEC2E7FFF71FFEC9E7FFF71CFEF9
:10255000D4E7FFF719FEE8E7CC0A0020002C014081
:102560000D4885460D480E490E4A002302E0D45816
:10257000C4500433C4188C42F9D30B4A0B4C0023CB
:1025800001E013600432A242FBD3FFF729FFFDF7FD
:102590009DFEFFF733FEFEE70080002000000020D4
:1025A000C4090020F07C0008C40900200C1D002094
:1025B000FEE70000104B1B680BB90120704710B5F7
:1025C00004464FF47A70B0FBF3F30C4A1068B0FB8A
:1025D000F3F000F0A5F868B90F2C01D901200AE04A
:1025E000002221464FF0FF3000F054F8044B1C60ED
:1025F000002000E0012010BD440800204008002019
:102600004808002010B5032000F032F80F20FFF733
:10261000D1FF10B10124204610BD0446FFF770FE23
:10262000F9E70000034A1368034909680B44136083
:10263000704700BF180B002044080020014B1868A9
:10264000704700BF180B002038B50446FFF7F6FFAF
:102650000546B4F1FF3F02D0044B1B681C44FFF752
:10266000EDFF401BA042FAD338BD00BF4408002054
:10267000074AD36823F4E0631B041B0C000200F438
:10268000E060034343F0BF6343F40033D36070471B
:1026900000ED00E000B5194BDB68C3F30223C3F182
:1026A000070CBCF1040F28BF4FF0040C03F1040E1B
:1026B000BEF1060F18D9033B4FF0FF3E0EFA0CFC9B
:1026C00021EA0C0199400EFA03F322EA03031943AD
:1026D00000280BDB0901C9B200F1604000F5614040
:1026E00080F800135DF804FB0023E5E700F00F001D
:1026F0000901C9B2024B1954F4E700BF00ED00E034
:1027000014ED00E0002807DB00F01F024009012360
:102710009340024A42F82030704700BF00E100E0D9
:102720000138B0F1807F0BD24FF0E0235861054AA9
:10273000F02182F823100020986107221A61704767
:102740000120704700ED00E070B582B0002365E025
:1027500085685E000324B44025EA0405CC68B440D3
:102760002C438460446824EA0C0C4C68C4F30014C5
:102770009C4044EA0C04446061E0DD08083550F8F0
:10278000256003F007044FEA840C0F2404FA0CF4CC
:1027900026EA040E0C6904FA0CF444EA0E0440F82C
:1027A000254063E0052400E0002404FA0EF42C43E5
:1027B0000CF1020C574D45F82C40574CA568D443FA
:1027C00025EA0206D1F804C01CF4801F01D042EAB9
:1027D0000506514DAE60ED6804EA0506D1F804C067
:1027E0001CF4001F01D042EA05064B4DEE606D68F7
:1027F00004EA0506D1F804C01CF4003F01D042EA07
:102800000506454D6E602D682C404E6816F4803FDD
:1028100001D042EA0504404A146001330A6832FAE2
:1028200003F474D04FF0010C0CFA03FC1CEA020212
:10283000F3D04C6804F00304013C012C88D94C68A7
:1028400004F00304032C0CD0C4685D004FF0030CAB
:102850000CFA05FC24EA0C0C8C68AC4044EA0C042D
:10286000C4604C6804F00304022C86D004684FEA6C
:10287000430E4FF0030C0CFA0EFC24EA0C0C4C68CF
:1028800004F0030404FA0EF444EA0C0404604C68F7
:1028900014F4403FC1D0214C256E45F0010525665A
:1028A000246E04F001040194019C4FEA930C0CF196
:1028B0000205184C54F8255003F003044FEA840E27
:1028C0000F2404FA0EF425EA0405B0F1904F3FF40A
:1028D0006BAF134CA04212D004F58064A04210D01C
:1028E00004F58064A0420ED004F58064A0420CD0B0
:1028F00004F58064A0423FF455AF062455E7012457
:1029000053E7022451E703244FE704244DE702B0C4
:1029100070BD00BF000001400004014000100240F3
:10292000000400480AB18161704781627047002845
:1029300059D010B5044690F84130002B43D02423E1
:1029400084F841302268136823F001031360636840
:10295000226823F0706313612268936823F40043B4
:102960009360E368012B33D0A368226843F40443E7
:102970009360E368022B31D02268536843F0007300
:1029800043F4004353602268D36823F40043D360C8
:10299000236962691343A169226843EA0123D36072
:1029A000E369216A22680B4313602268136843F0CD
:1029B0000103136000206064202384F84130206309
:1029C00084F8420010BD80F84030FFF783FBB6E783
:1029D000A368226843F400439360CAE723684FF476
:1029E00000625A60C8E70120704790F84130DBB2BE
:1029F000202B24D190F84030012B22D0012380F8E5
:102A00004030242380F841300268136823F001032A
:102A100013600268136823F480531360026813681C
:102A2000194311600268136843F001031360202307
:102A300080F84130002380F840301846704702206B
:102A400070470220704790F84130DBB2202B22D132
:102A500090F84030012B20D0012380F8403024230F
:102A600080F841300268136823F0010313600268A4
:102A7000136823F4706343EA01211160026813684C
:102A800043F001031360202380F84130002380F8D5
:102A9000403018467047022070470220704738B512
:102AA00012F4804F43D00468B4F8503091F800C05D
:102AB0004FEACC0E1EFA83F32344B3F80244C4F366
:102AC00009048B69A34228D31B1B8B618B697BB9DB
:102AD000056835F82C309BB223F4804323F0700353
:102AE00083F4005343F4004343F0800325F82C3073
:102AF00012F0400F0ED002680D7832F825309BB2EC
:102B000023F4E04323F0700343F4004343F0C00395
:102B100022F8253024B9204638BD00238B61D5E743
:102B200023460A894969006803F0C4FCF3E7046896
:102B3000B4F8503091F800C04FEACC0E1EFA83F37F
:102B40002344B3F80644C4F309048B69A3422FD38A
:102B50001B1B8B618B697BB9056835F82C309BB2E8
:102B600023F4804323F0700383F4005343F40043C1
:102B700043F0800325F82C3012F0400F0FD102688B
:102B800091F800C032F82C309BB223F4E04323F0DC
:102B9000700343F4004343F0C00322F82C30002CB0
:102BA000B9D023464A894969006803F083FCB2E73B
:102BB00000238B61CEE700286DD030B587B0044686
:102BC00090F8A9323BB1032384F8A932206802F0BF
:102BD00050FD00231FE080F8A83204F065FCF2E706
:102BE0005A1C02EB820104EBC1010120487002EB88
:102BF000820104F8313003EB830104EBC101CB8681
:102C000002EB820C04EBCC0C00208CF803008863F0
:102C1000C8630864D3B260688342E1D3002316E03E
:102C200003EB830204EBC202002182F8691182F8EF
:102C3000683182F86B11C2F87811C2F87C1103EB8D
:102C4000830204EBC202C2F880110133DBB2984266
:102C5000E6D8A4465CF8105BEE46BCE80F00AEE890
:102C60000F00DCF80030CEF80030231D0ECB2846D4
:102C700002F009FD002384F82430012384F8A932EE
:102C8000E369012B02D0002007B030BD204600F0E0
:102C9000E8FE0020F8E70120704790F8A832012BE9
:102CA0000ED010B50446012380F8A832006802F067
:102CB000D7FC206803F02CF8002084F8A80210BD8F
:102CC0000220704770B505460C46164612F0400FBC
:102CD00000F009810268B2F850300978C80010FA93
:102CE00083F31344B3F80224C2F30902A3699342A5
:102CF00051D99B1AA361A369002B68D16378002B7B
:102D00004CD12A68B2F8503012FA83F30344B3F876
:102D1000022492B222F4F84292B2A3F80224B3F849
:102D200002246FEA42426FEA524292B2A3F80224AE
:102D300029686278002A3DD1B1F8503011FA83F346
:102D4000227803EBC203B3F8062492B222F4F842CD
:102D500092B2A3F80624B3F806246FEA42426FEA5F
:102D6000524292B2A3F806242178284604F0E2FBEE
:102D700016F4804F40D02A68217832F821309BB277
:102D800023F4E04323F0700343F4404343F0800313
:102D900022F8213030E00023A361ACE7012BC7D13A
:102DA0002A68B2F8503012FA83F303440022A3F8E1
:102DB0000224BDE7012AD7D1B1F8503011FA83F3CC
:102DC000217803EBC1030022A3F80624CCE716F414
:102DD000804F0DD0286830F821309BB223F4E043B7
:102DE00023F0700343F4404343F0800320F8213084
:102DF00094F82430012B12D02A68217832F821303F
:102E00009BB223F4E04323F0400383F0300343F408
:102E1000004343F0800322F82130002070BD636935
:102E200013446361E3691344E361216A23699942AE
:102E30001BD3C91A21626278002A3FD12968B1F8F0
:102E4000502011FA82F2217802EBC1023E2B18D9F0
:102E5000590913F01F0F00D101396FEAC1616FEA00
:102E6000514189B2A2F802142AE021B9002384F862
:102E700024301346DFE7002384F8243023620B4616
:102E8000D9E78BB9B2F8021489B221F4F84189B2BA
:102E9000A2F80214B2F802146FEA41416FEA5141FC
:102EA00089B2A2F802140BE0590813F0010F00D008
:102EB0000131890289B2A2F8021401E0012A06D088
:102EC0009BB222896169286802F031FF94E7296882
:102ED000B1F8502011FA82F2217802EBC10299B2C6
:102EE000A2F80214ECE70268B2F850300978C80082
:102EF00010FA83F31344B3F80624C2F30902A3695A
:102F0000934252D39B1AA361A369002B69D16378C2
:102F1000002B4DD12A68B2F8503012FA83F31844CE
:102F2000B0F802349BB223F4F8439BB2A0F8023409
:102F3000B0F802346FEA43436FEA53439BB2A0F800
:102F4000023429686278002A3ED1B1F8503011FA73
:102F500083F3227803EBC203B3F8062492B222F47F
:102F6000F84292B2A3F80624B3F806246FEA42426C
:102F70006FEA524292B2A3F806242178284604F060
:102F8000D9FA16F4804F7FF437AF2A68217832F8E7
:102F900021309BB223F4E04323F0700343F4404319
:102FA00043F0800322F8213026E70023A361ABE73A
:102FB000012BC6D12A68B2F8503012FA83F31844B4
:102FC0000023A0F80234BCE7012AD6D1B1F8503072
:102FD00011FA83F3217803EBC1030022A3F806243E
:102FE000CBE716F4804F0DD1286830F821309BB222
:102FF00023F4E04323F0700343F4404343F08003A1
:1030000020F8213094F82430012B7FF4F5AE636969
:1030100013446361E3691344E361216A23699942BC
:103020001BD3C91A216229686278002A3ED1B1F8FF
:10303000502011FA82F2217802EBC1023E2B18D9FE
:10304000590913F01F0F00D101396FEAC1616FEA0E
:10305000514189B2A2F806142AE021B9002384F86C
:1030600024301346DFE70023236284F824300B4624
:10307000D9E78BB9B2F8061489B221F4F84189B2C4
:10308000A2F80614B2F806146FEA41416FEA514102
:1030900089B2A2F806140BE0590813F0010F00D012
:1030A0000131890289B2A2F8061401E0012A06D092
:1030B0009BB262896169286802F039FE9CE6B1F82A
:1030C000502011FA82F2217802EBC10299B2A2F8E3
:1030D0000614EDE72DE9F0410546CAE003889BB2EE
:1030E00023F4E14323F070036FEA43436FEA534351
:1030F0009BB203802968B1F8503095F82820D2009F
:1031000012FA83F30B44B3F80234C3F309036B647C
:10311000EA6B1344EB630021284604F00BFA95F8A0
:103120002430002B00F0A5802B6C002B40F0A180F8
:1031300095F824302A6843F08003A2F84C3000232D
:1031400085F8243095E0B0F8503095F86821D20029
:1031500012FA83F30344B3F80634C3F30903C5F842
:103160008431B5F86E2105F52C7103F0A3F92A68B6
:10317000138823F070031B051B0D43F0800313809D
:10318000284604F0C3F974E089B9B3F8062492B272
:1031900022F4F84292B2A3F80624B3F806246FEAA8
:1031A00042426FEA524292B2A3F80624BFE04A08B4
:1031B00011F0010F00D00132920292B2A3F806245E
:1031C000B5E030F824309EB213F4004F40F0BE80DA
:1031D00016F0800F4DD0621C02EB820105EBC1019D
:1031E000286830F824309BB223F4E14323F07003C5
:1031F0006FEA43436FEA53439BB220F82430CB7805
:10320000022B00F0A78104EB840305EBC30300222B
:103210001A6493F8343023B316F0400F00F0638142
:103220004B78002B40F04C812A68B2F8503012FAEB
:1032300083F3621C02EB820215F8322003EBC20317
:10324000B3F8022492B222F4F84292B2A3F8022414
:10325000B3F802246FEA42426FEA524292B2A3F8F4
:103260000224013404EB840415F83410284604F0D9
:1032700061F92868B0F8443013F4004F00F0AE81D3
:10328000B0F84440A3B214F00F049AD113F0100F19
:103290003FF424AF03889AB213F4006F7FF453AF66
:1032A00012F4004FE5D0038823F070031B051B0DBB
:1032B00043F0800303802868B0F8503095F8682107
:1032C000D20012FA83F30344B3F80634C3F30903BC
:1032D000C5F884318BB1D5F87C1171B1B5F86E2188
:1032E00003F0E8F8D5F88421D5F87C311344C5F80B
:1032F0007C310021284604F011F92B681A8812F459
:10330000006FB6D1B3F8502013FA82F3D5F87811D4
:103310003E297FF639AF4A0911F01F0F00D1013A5B
:103320006FEAC2626FEA524292B2A3F806242A6898
:1033300013889BB223F4804323F0700383F440533B
:1033400043F4004343F08003138092E730F82430C5
:1033500023F070031B051B0D43F0800320F824307D
:1033600004EB8401C90001F5B47105EB010804EB1D
:10337000840305EBC30393F87431002B40D1286814
:10338000B0F8503004EB840205EBC20292F86821D9
:10339000D20012FA83F30344B3F80674C7F30907A3
:1033A00017BB04EB840305EBC303D3F884213A4431
:1033B000C3F88421D3F87C213A44C3F87C21D3F8A4
:1033C00080313BB104EB840305EBC303D3F87831C0
:1033D0009F4270D204EB840305EBC30393F868119A
:1033E000284604F09BF8F3E604EB840105EBC101E9
:1033F0003B46B1F86E21D1F87C1103F05BF8D0E7C1
:1034000004EB840305EBC30393F86B31022B33D039
:10341000296804EB840205EBC20292F8680131F8D6
:1034200020309BB223F4E04323F0700343F40043C5
:1034300043F0C00321F82030286892F8683130F852
:10344000232012F4804F1ED0B0F85020DB0013FA76
:1034500082F30344B3F80274C7F30907002FA0D026
:1034600004EB840105EBC1013B46B1F87021D1F8B2
:103470007C1103F01FF894E7324641462846FFF7D7
:103480000EFB07468DE7B0F85020DB0013FA82F3FD
:103490000344B3F80674C7F30907002F81D004EB87
:1034A000840105EBC1013B46B1F87221D1F87C11D2
:1034B00003F000F875E74146286802F04BFC87E608
:1034C000012B7FF4CEAE2A68B2F8503012FA83F3A3
:1034D000621C02EB820215F8322003EBC2030022C9
:1034E000A3F80224BDE62968631C03EB830305EB04
:1034F000C3035A78E2B9B1F8503011FA83F3621C71
:1035000002EB820215F8322003EBC203B3F8062463
:1035100092B222F4F84292B2A3F80624B3F8062439
:103520006FEA42426FEA524292B2A3F8062498E64A
:10353000012A7FF496AEB1F8503011FA83F3621C81
:1035400002EB820215F8322003EBC2030022A3F83B
:10355000062486E616F4807F3BD12868B0F8503008
:10356000621C02EB820215F83260F20012FA83F359
:103570000344B3F80234C3F3090304EB840205EBFC
:10358000C202126C9A4210D904EB840705EBC707FC
:10359000D21A3A6404EB840205EBC202126C5AB9E7
:1035A0003146284603F0C6FF63E604EB840205EBD0
:1035B000C20200271764EDE704EB840205EBC202A8
:1035C000D66B1E44D663546C2344536402F0C2FB92
:1035D0004FE632462846FFF775FB4AE60020BDE875
:1035E000F08190F8A832012B0DD010B504460123CC
:1035F00080F8A83280F82410006802F083FB0020D5
:1036000084F8A80210BD0220704710B50446006877
:1036100002F089FB10F4004F23D110F4806F24D105
:1036200010F4804F32D110F4005F39D110F4805F74
:1036300040D110F4006F67D110F0800F40F081800E
:1036400010F4007F40F0AD8010F4807F27D0226816
:10365000B2F844309BB223F480739BB2A2F844309A
:103660001DE02046FFF736FD19E02268B2F844302D
:103670009BB223F480639BB2A2F84430204603F04F
:103680006AFF00212046FFF7ACFF08E02268B2F88D
:1036900044309BB223F480439BB2A2F8443010BD67
:1036A0002268B2F844309BB223F400539BB2A2F8D4
:1036B0004430F4E72268B2F840309BB223F00403B0
:1036C0009BB2A2F840302268B2F840309BB223F09F
:1036D00008039BB2A2F8403094F8E032012B0CD0E2
:1036E000204603F05BFF2268B2F844309BB223F41B
:1036F00080539BB2A2F84430D1E7002184F8E01255
:10370000204604F003F8EBE72268B2F840309BB2A1
:1037100043F00803A2F840302268B2F844309BB26C
:1037200023F400639BB2A2F844302268B2F8403020
:103730009BB243F00403A2F84030204603F01EFF82
:10374000ADE72268B2F844309BB223F080039BB20D
:10375000A2F8443094F8E032FBB92268B2F8403065
:103760009BB243F00403A2F840302268B2F8403024
:103770009BB243F00803A2F84030012184F8E01224
:103780002368B3F85430C3F38D0303F03C03C4F84B
:10379000E432204603F0BAFF81E7204603F0EEFE54
:1037A0007DE72268B2F844309BB223F400739BB2E9
:1037B000A2F84430204603F0C8FE70E710B5044676
:1037C0008C4611F0800F2AD101F0070000EB800138
:1037D000C90001F5B47E04EB0E0100EB800004EBA0
:1037E000C0004FF0000E80F869E10CF0070C81F882
:1037F00000C00A61CB704A780AB1A1F80EC0022B52
:1038000019D094F8A832012B18D0012384F8A832DB
:10381000206801F049FF002084F8A80210BD01F0E3
:103820000700013000EB800104EBC1014FF0010EF5
:1038300081F801E0D9E700230B71E2E70220EDE710
:1038400010B504460B4611F0800F1FD101F007029E
:1038500002EB8201C90001F5B471014402EB82025E
:1038600000EBC202002082F8690103F007030B702D
:1038700094F8A832012B13D0012384F8A8322068D1
:1038800002F0DFF8002084F8A80210BD01F0070262
:10389000013202EB820100EBC10101204870E4E734
:1038A0000220F2E710B501F0070404EB8401C9001F
:1038B00001F5B471014404EB840C00EBCC0CCCF8A2
:1038C0007C21CCF880310023CCF884318CF869312C
:1038D0008CF8684124B9006802F03CFA002010BD61
:1038E000006802F037FAF9E701F0070101EB810106
:1038F00000EBC101D1F88401704710B501F0070455
:1039000004F1010C0CEB8C0100EBC10104EB840E03
:1039100000EBCE0ECEF83C20CEF8403001228EF8DF
:103920004C20CEF848300023CEF844304A700CEBDF
:103930008C0C00F83C4024B9006802F00BFA00201F
:1039400010BD006802F006FAF9E70B4601F0070225
:1039500041688A422AD810B5044613F0800F1DD161
:1039600003EB8301C90001F5B471014403EB830348
:1039700000EBC303002083F8690101238B700A70F8
:1039800094F8A832012B13D0012384F8A8322068C0
:1039900002F042F9002084F8A80210BD531C03EB8A
:1039A000830100EBC10101204870E6E70120704768
:1039B0000220F2E70B4601F00F014268914230D835
:1039C00010B5044613F0800F21D103F0070202EB7B
:1039D0008201C90001F5B471014402EB820200EBDF
:1039E000C202002082F8690100228A7003F00703F6
:1039F0000B7094F8A832012B15D0012384F8A8325B
:103A0000206802F02EF9002084F8A80210BD03F00F
:103A10000702013202EB820100EBC1010120487074
:103A2000E2E7012070470220F0E711F0800F0BD091
:103A300001F00701013101EB810100EBC10152B935
:103A40000A73CB800020704701EB8101C90001F5AA
:103A5000B4710144F3E701220A730B811B0C4B8103
:103A6000F0E7034602680121C0F8E812002083F85D
:103A7000E002B2F854309BB20B43A2F85430B2F8D3
:103A800054309BB243F00203A2F854307047000058
:103A9000002836D13E4B1B6803F4C063B3F5806F3A
:103AA00008D03B4AD2F8803023F48073C2F88030CB
:103AB00000207047364AD2F8803023F48073C2F871
:103AC0008030136823F4C06343F400731360314BF8
:103AD0001B68322202FB03F32F4AA2FB03239B0C39
:103AE000013300E0013B2A4A526912F4806F01D091
:103AF000002BF7D1264B5B6913F4806F44D1002073
:103B00007047B0F5007F08D0214A136823F4C063E2
:103B100043F480631360002070471D4B1B6803F45F
:103B2000C063B3F5806F08D0194AD2F8803043F4EF
:103B30008073C2F8803000207047154AD2F8803078
:103B400043F48073C2F88030136823F4C06343F4F5
:103B5000007313600F4B1B68322202FB03F30E4A03
:103B6000A2FB03239B0C013300E0013B084A52698E
:103B700012F4806F01D0002BF7D1054B5B6913F471
:103B8000806F03D1002070470320704703207047E7
:103B9000007000404008002083DE1B43024A936807
:103BA00043F480439360704700700040124BDA6822
:103BB00002F00302D868C0F30310431C032A11D09B
:103BC0000E48B0FBF3F00C4BDB68C3F3062303FB9A
:103BD00000F0094BDB68C3F3416301335B00B0FBCA
:103BE000F3F070470648B0FBF3F0034BDB68C3F318
:103BF000062303FB00F0ECE7001002400024F40071
:103C000000127A00002800F0548270B582B0044699
:103C1000036813F0010F37D0A44A936803F00C0334
:103C2000D26802F003020C2B23D0082B23D0636848
:103C3000B3F5803F4ED0B3F5A02F51D09B4B1A68FF
:103C400022F480321A601A6822F480221A606368B3
:103C5000002B52D0FEF7F2FC0546944B1B6813F480
:103C6000003F11D1FEF7EAFC401B6428F5D9032080
:103C700028E2032AD9D18D4B1B6813F4003F03D0EF
:103C80006368002B00F01782236813F0020F5DD0E9
:103C9000864A936803F00C03D26802F003020C2BEF
:103CA0003AD0042B3AD0E368002B75D07F4A1368D2
:103CB00043F480731360FEF7C1FC05467B4B1B6821
:103CC00013F4806F5FD1FEF7B9FC401B0228F5D9D1
:103CD0000320F7E1754A136843F480331360B6E7B5
:103CE00003F18043A3F53C331A6842F480221A6042
:103CF0001A6842F480321A60A9E7FEF79FFC054675
:103D00006A4B1B6813F4003FBED0FEF797FC401BC4
:103D10006428F5D90320D5E1022AC2D1634B1B6880
:103D200013F4806F03D0E368002B00F0C6815F4A74
:103D3000536823F0FE43216943EA016353605C4BFF
:103D40001868FEF737FC002840F0B981236813F0AB
:103D5000080F4CD063699BB3544AD2F8943043F0B7
:103D60000103C2F89430FEF769FC05464F4BD3F8C7
:103D7000943013F0020F3AD1FEF760FC401B02288A
:103D8000F4D903209EE1494A536823F0FE43216998
:103D900043EA01635360D9E7444A136823F480730C
:103DA0001360FEF74BFC0546404B1B6813F4806F15
:103DB000CCD0FEF743FC401B0228F5D9032081E15B
:103DC0003A4AD2F8943023F00103C2F89430FEF757
:103DD00035FC0546354BD3F8943013F0020F06D06E
:103DE000FEF72CFC401B0228F4D903206AE123686B
:103DF00013F0040F00F081802C4B9B6D13F0805F5B
:103E000036D12A4B9A6D42F080529A659B6D03F031
:103E100080530193019B0125264B1B6813F4807F7F
:103E200028D0A368012B39D0052B45D01F4BD3F8E0
:103E3000902022F00102C3F89020D3F8902022F0C5
:103E40000402C3F89020A368002B43D0FEF7F6FBD2
:103E50000646164BD3F8903013F0020F4CD1FEF704
:103E6000EDFB801B41F288339842F2D9032029E10F
:103E70000025D1E70F4A136843F480731360FEF7FF
:103E8000DDFB06460B4B1B6813F4807FC9D1FEF7A0
:103E9000D5FB801B0228F5D9032013E1034AD2F891
:103EA000903043F00103C2F89030CCE7001002409C
:103EB00048080020007000408A4BD3F8902042F060
:103EC0000402C3F89020D3F8902042F00102C3F816
:103ED0009020B8E7FEF7B2FB0646824BD3F890304D
:103EE00013F0020F08D0FEF7A9FB801B41F28833C4
:103EF0009842F2D90320E5E0E5B9236813F0200FDA
:103F000035D0A369E3B1774AD2F8983043F0010382
:103F1000C2F89830FEF792FB0546724BD3F8983002
:103F200013F0020F23D1FEF789FB401B0228F4D9BE
:103F30000320C7E06B4A936D23F080539365DCE761
:103F4000684AD2F8983023F00103C2F89830FEF79F
:103F500075FB0546634BD3F8983013F0020F06D07B
:103F6000FEF76CFB401B0228F4D90320AAE0E369AA
:103F7000002B00F0A6805B4A926802F00C020C2A2B
:103F800069D0022B1DD0574B1A6822F080721A603C
:103F9000DA6822F00302DA60DA6822F0887222F42A
:103FA0008032DA60FEF74AFB04464E4B1B6813F082
:103FB000007F4ED0FEF742FB001B0228F5D90320FC
:103FC00080E0484A136823F080731360FEF736FBE5
:103FD0000546444B1B6813F0007F06D0FEF72EFB0E
:103FE000401B0228F5D903206CE03E4AD3683E49C5
:103FF0001940236A606A013843EA0013A06A43EA61
:104000000023206B4008013843EA4053606B4008AE
:10401000013843EA4063E06A43EAC0630B43D3607C
:10402000136843F080731360D36843F08073D360E8
:10403000FEF704FB04462B4B1B6813F0007F06D1F0
:10404000FEF7FCFA001B0228F5D903203AE0002015
:1040500038E0002036E0012B36D0224BDB6803F03D
:104060000301226A914231D103F0F002616A013901
:10407000B2EB011F2CD103F4FE42A16AB2EB012F77
:1040800028D103F07842E16AB2EBC16F24D103F486
:10409000C001226B5208013AB1EB425F1ED103F01E
:1040A000C063626B5208013AB3EB426F18D1002033
:1040B00008E001207047012004E0012002E0012017
:1040C00000E0002002B070BD0120FBE70120F9E70D
:1040D0000120F7E70120F5E70120F3E70120F1E7F0
:1040E0000120EFE7001002400C809F011E4B9B68EF
:1040F00003F00C03042B33D01B4B9B6803F00C0321
:10410000082B2FD0184B9B6803F00C030C2B01D00D
:1041100000207047144BDA6802F00302D868C0F33D
:104120000310431C032A11D01048B0FBF3F00E4BD0
:10413000DB68C3F3062303FB00F00B4BDB68C3F320
:10414000416301335B00B0FBF3F070470848B0FBFC
:10415000F3F0054BDB68C3F3062303FB00F0ECE749
:104160000248704702487047001002400024F400E3
:1041700000127A00002800F0E680F8B50C460546EB
:10418000744B1B6803F00F038B420BD2714A136808
:1041900023F00F030B431360136803F00F038B42EC
:1041A00040F0D3802E6816F001065FD06B68032BB9
:1041B0002FD0022B4DD0684B1B6813F4806F00F09A
:1041C000C680FFF793FF654B98424DD9624A9368CA
:1041D00023F0F00343F08003936080265E4A9368E7
:1041E00023F0030369680B439360FEF727FA074641
:1041F000594B9B6803F00C036A68B3EB820F35D010
:10420000FEF71CFAC01B41F288339842F0D9032014
:1042100078E0514B1B6813F0007F01D1012071E061
:10422000FFF7C4FC4D4B98421AD94B4B9B6813F0D7
:10423000F00F05D02E6816F00206CFD0AB688BB910
:10424000454A936823F0F00343F08003936080268F
:10425000C4E7414B1B6813F4003FB2D1012051E089
:104260000026BBE70026B9E70026B7E72B6813F066
:10427000020F48D013F0040F04D0374A936843F478
:10428000E06393602B6813F0080F06D0324A9368FE
:1042900023F47C5343F4E06393602F4A936823F044
:1042A000F003A9680B4393602A4B1B6803F00F03CC
:1042B000A34230D82B6813F0040F06D0264A936827
:1042C00023F4E063E9680B4393602B6813F0080F55
:1042D00007D0214A936823F46053296943EAC10354
:1042E0009360FFF703FF1C4B9B68C3F303131C4A47
:1042F000D35C03F01F03D8401A4B18601A4B1868A0
:10430000FEF758F9F8BD802ECED1134A936823F0FA
:10431000F0039360C8E70F4A136823F00F032343A9
:104320001360FEF78BF906460A4B1B6803F00F0378
:10433000A342BFD0FEF782F9801B41F28833984236
:10434000F2D90320DEE7012070470120DAE70120DF
:10435000D8E700BF002002400010024000B4C404AF
:104360004C7C00084008002048080020F0B583B0CD
:104370000446036813F4002F69D0AE4B9B6D13F015
:10438000805F1ED1AB4B9A6D42F080529A659B6D57
:1043900003F080530193019B0126A74A136843F45D
:1043A00080731360FEF74AF90546A34B1B6813F4AC
:1043B000807F08D1FEF742F9401B0228F5D903257A
:1043C00002E00026E9E7002545BB9A4BD3F8903080
:1043D00013F4407315D0226C9A4212D0954AD2F849
:1043E000903023F44073D2F8901041F48031C2F839
:1043F0009010D2F8901021F48031C2F89010C2F8D9
:10440000903013F0010F10D145B98A4AD2F890309C
:1044100023F44073216C0B43C2F89030C6B1854A37
:10442000936D23F08053936512E0FEF707F907467A
:10443000804BD3F8903013F0020FE5D1FEF7FEF871
:10444000C01B41F288339842F2D90325DCE70025EE
:10445000236813F0010F08D0764AD2F8883023F091
:10446000030361680B43C2F88830236813F0020F1E
:1044700008D0704AD2F8883023F00C03A1680B43AF
:10448000C2F88830236813F0040F08D0694AD2F8C4
:10449000883023F03003E1680B43C2F8883023688A
:1044A00013F0080F08D0634AD2F8883023F0C00315
:1044B00021690B43C2F88830236813F0200F08D01D
:1044C0005C4AD2F8883023F4406361690B43C2F838
:1044D0008830236813F0400F08D0564AD2F888304D
:1044E00023F44053A1690B43C2F88830236813F0CA
:1044F000800F08D04F4AD2F8883023F44043E16956
:104500000B43C2F88830236813F4807F08D0494AEF
:10451000D2F8883023F44033216A0B43C2F8883044
:10452000236813F4007F08D0424AD2F8883023F47D
:104530004023616A0B43C2F88830236813F4806F0C
:104540000CD03C4AD2F8883023F44013A16A0B43C4
:10455000C2F88830A36AB3F5801F57D0236813F4DC
:10456000006F0CD0334AD2F8883023F44003E16A5C
:104570000B43C2F88830E36AB3F5800F4BD0236851
:1045800013F4805F0CD02B4AD2F8883023F04073AC
:10459000216B0B43C2F88830236BB3F1807F3FD08F
:1045A000236813F4005F0CD0224AD2F8883023F03D
:1045B0004063616B0B43C2F88830636BB3F1006FEB
:1045C00033D0236813F4804F0CD01A4AD2F88830C5
:1045D00023F04063A16B0B43C2F88830A36BB3F1A7
:1045E000006F2BD0236813F4004F0CD0114AD2F87F
:1045F000883023F04053E16B0B43C2F88830E36B03
:10460000B3F1805F1FD0284603B0F0BDD36843F4F8
:104610008013D360A2E7D36843F48013D360AEE77E
:10462000D36843F48013D360BAE7D36843F48013AC
:10463000D360C6E70010024000700040D36843F426
:104640008013D360CEE7D36843F48033D360DAE7D6
:104650002DE9F04782B00546884617461E46FDF70D
:10466000EDFF0A9B1B1A03EB0609FDF7E7FF8246E5
:104670002B4B1B68C3F3CB3309FB03F301932B686C
:104680009C6838EA04030CBF4FF0010C4FF0000C9B
:10469000BC4540D0B6F1FF3FF1D0FDF7CFFFA0EB16
:1046A0000A0048450AD2B9F1000F07D0019A02B1B9
:1046B0004A46019B013B01939146E0E72A68536813
:1046C00023F0E00353606B68B3F5827F0BD0AB6AD5
:1046D000B3F5005F14D0012385F85D30002385F821
:1046E0005C30032018E0AB68B3F5004F02D0B3F59F
:1046F000806FECD12A68136823F040031360E6E76B
:104700002A68136823F4005313602A68136843F47B
:1047100000531360DFE7002002B0BDE8F08700BF60
:10472000400800202DE9F04782B006460C461546A9
:104730001F4600238DF80330FDF780FF0A9B1B1AEC
:1047400003EB0708FDF77AFF8146D6F800A0314B4E
:104750001B6803EB8303C3EBC3031B0D08FB03F3CD
:10476000019302E0B7F1FF3F12D133689B6803EA7F
:10477000040CAC454AD0B4F5C06FF3D1002DF1D193
:104780009AF80C30DBB28DF803309DF80330E9E77E
:10479000FDF754FFA0EB090040450AD2B8F1000F25
:1047A00007D0019A02B14246019B013B019390461A
:1047B000DBE73268536823F0E00353607368B3F5B6
:1047C000827F0BD0B36AB3F5005F14D0012386F863
:1047D0005D30002386F85C30032018E0B368B3F541
:1047E000004F02D0B3F5806FECD13268136823F02C
:1047F00040031360E6E73268136823F40053136044
:104800003268136843F400531360DFE7002002B0FE
:10481000BDE8F0874008002070B582B004460D4620
:10482000164600920B4600224FF4C051FFF77AFF64
:10483000B0B900962B46002280212046FFF708FFE2
:10484000A8B900962B4600224FF4C0612046FFF71E
:1048500069FF50B1236E43F020032366032004E078
:10486000236E43F020032366032002B070BD236E45
:1048700043F0200323660320F7E700286FD010B52C
:104880000446436A33B94368B3F5827F05D00023F9
:10489000C36102E00023036143610023A36294F833
:1048A0005D30002B52D0022384F85D3022681368FB
:1048B00023F040031360E368B3F5E06F4CD90022A6
:1048C000B3F5706F04D0B3F5E06F01D00023A3629D
:1048D000636803F48273A16801F404410B43216906
:1048E00001F002010B43616901F001010B43A16971
:1048F00001F400710B43E16901F038010B43216AB7
:1049000001F080010B43A16A01F4005120680B43C0
:104910000360638B03F00403616A01F010010B4331
:10492000616B01F008010B43E16801F470610B4316
:10493000216813434B602268D36923F40063D36179
:1049400000202066012384F85D3010BD84F85C30BF
:104950002046FDF7A3FCA6E74FF48052B0E7012004
:1049600070472DE9F04383B01D4690F85C30012B71
:1049700000F0F680044688469146012380F85C30BA
:10498000FDF75CFE074694F85D60F6B2012E40F03C
:10499000D480B8F1000F00F0D180B9F1000F00F021
:1049A000CD80032384F85D3000232366C4F838806B
:1049B000A4F83C90A4F83E902364A4F84430A4F8F2
:1049C00046302365E364A368B3F5004F1ED0236827
:1049D0001A6812F0400F03D11A6842F040021A60C0
:1049E000E368B3F5E06F42D9636813B1B9F1010F21
:1049F00023D1A26B23681288DA60A36B0233A3630E
:104A0000E38F9BB2013B9BB2E38716E022681368F9
:104A100023F0400313602268136843F4804313605B
:104A2000D5E7FDF70BFEC01BA84203D3B5F1FF3F4E
:104A300040F08E80002D00F08D80E38F9BB2002B24
:104A400066D023689A6812F0020FEAD0A26B12882F
:104A5000DA60A36B0233A363B4F83EC01FFA8CFC88
:104A60000CF1FF3C1FFA8CFCA4F83EC0E5E763683C
:104A700013B1B9F1010F33D1E38F9BB2012B0CD9E4
:104A8000A26B23681288DA60A36B0233A363E38FFF
:104A90009BB2023B9BB2E38722E0A26B23681278B1
:104AA0001A73A36B0133A363E38F9BB2013B9BB2E9
:104AB000E38715E0A36B1B781373A36B0133A36328
:104AC000E38F9BB2013B9BB2E38709E0FDF7B6FDA4
:104AD000C01BA84202D3B5F1FF3F3DD1002D3DD010
:104AE000E38F9BB2A3B12268936813F0020FEDD05D
:104AF000E38F9BB2012BDDD9A36B1B88D360A36B23
:104B00000233A363E38F9BB2023B9BB2E387E7E7E9
:104B10003A4629462046FFF77FFE08B12023236648
:104B2000A36833B901932368DA6801929B68019303
:104B3000019B236E13B9002600E00226012384F8AE
:104B40005D30002384F85C30304603B0BDE8F0836C
:104B50000326F3E70326F1E70326EFE70326EDE755
:104B60000226F1E730B4036A23F001030362036A0B
:104B70004568826922F4803222F073020C68224375
:104B800023F002038C6823431D4CA0420FD004F590
:104B90000064A0420BD004F54064A04207D004F5A5
:104BA0008064A04203D004F58064A04205D123F0C4
:104BB0000803CC68234323F00403114CA0420FD018
:104BC00004F50064A0420BD004F54064A04207D075
:104BD00004F58064A04203D004F58064A04207D1AC
:104BE00025F4407C4C6944EA0C0C8D6945EA0C05BF
:104BF000456082614A684263036230BC704700BF0F
:104C0000002C014030B4036A23F480730362036A0A
:104C10004468C26922F4803222F073020D682A438C
:104C200023F400738D6843EA0523184DA84203D08E
:104C300005F50065A84206D123F40063CD6843EA78
:104C4000052323F48063114DA8420FD005F50065BC
:104C5000A8420BD005F54065A84207D005F5806550
:104C6000A84203D005F58065A84207D124F4405C32
:104C70004C694CEA041C8C694CEA04144460C2611F
:104C80004A68C263036230BC704700BF002C014019
:104C900030B4036A23F480530362036A4468C26930
:104CA00022F0807222F4E6420D6842EA052223F4E3
:104CB00000538D6843EA0533174DA84203D005F52C
:104CC0000065A84206D123F40043CD6843EA0533CA
:104CD00023F48043104DA8420FD005F50065A8428B
:104CE0000BD005F54065A84207D005F58065A842C0
:104CF00003D005F58065A84207D124F4404C4C69E7
:104D00004CEA841C8C694CEA84144460C2614A6891
:104D10000264036230BC7047002C014030B4036A67
:104D200023F480330362036A4468026D22F4803204
:104D300022F070020D682A4323F400338D6843EAA1
:104D400005430F4DA8420FD005F50065A8420BD0D2
:104D500005F54065A84207D005F58065A84203D057
:104D600005F58065A84204D124F480344D6944EAF5
:104D70000524446002654A688264036230BC70475F
:104D8000002C014030B4036A23F480130362036AE9
:104D90004468026D22F0807222F4E0420D6842EA1B
:104DA000052223F400138D6843EA05530F4DA842F2
:104DB0000FD005F50065A8420BD005F54065A84267
:104DC00007D005F58065A84203D005F58065A842A7
:104DD00004D124F480244D6944EA852444600265AA
:104DE0004A68C264036230BC704700BF002C0140B7
:104DF00010B4036A046A24F001040462846924F094
:104E0000F00C4CEA021223F00A030B4382610362A6
:104E100010BC704710B4046A24F010040462846962
:104E2000036A24F4704C4CEA023223F0A00343EAF4
:104E300001138261036210BC7047836823F440133E
:104E400023F070030B4343F0070383607047704700
:104E500003682C4A90420ED0B0F1804F0BD0A2F5DF
:104E60009432904207D002F58062904203D002F55E
:104E70009632904203D123F070034A681343214ACB
:104E800090421AD0B0F1804F17D0A2F594329042E0
:104E900013D002F5806290420FD002F59632904214
:104EA0000BD002F54062904207D002F5806290423A
:104EB00003D002F58062904203D123F44073CA68A4
:104EC000134323F080034A69134303608B68C36272
:104ED0000B6883620B4B98420FD003F50063984236
:104EE0000BD003F54063984207D003F580639842E6
:104EF00003D003F58063984201D10B69036301235A
:104F000043617047002C014060B310B5044690F82F
:104F10003D3013B3022384F83D30214651F8040B91
:104F2000FFF796FF012384F8483084F83E3084F878
:104F30003F3084F8403084F8413084F8423084F8BF
:104F4000433084F8443084F8453084F8463084F89F
:104F5000473084F83D30002010BD80F83C30FDF72C
:104F600041FAD7E70120704760B310B5044690F8C6
:104F70003D3013B3022384F83D30214651F8040B31
:104F8000FFF766FF012384F8483084F83E3084F848
:104F90003F3084F8403084F8413084F8423084F85F
:104FA000433084F8443084F8453084F8463084F83F
:104FB000473084F83D30002010BD80F83C30FFF7CA
:104FC00046FFD7E70120704730B4036A23F010038F
:104FD0000362036A4468826922F0807222F4E64226
:104FE0000D6842EA052223F020038D6843EA051389
:104FF000174DA84203D005F50065A84206D123F05D
:105000008003CD6843EA051323F04003104DA84206
:105010000FD005F50065A8420BD005F54065A84204
:1050200007D005F58065A84203D005F58065A84244
:1050300007D124F4406C4C694CEA840C8C694CEA2E
:105040008404446082614A688263036230BC7047B2
:10505000002C014038B590F83C30012B00F09580D1
:1050600004460D46012380F83C30142A00F2888063
:10507000DFE802F00B8686861F8686863486868663
:10508000488686865D86868671000068FFF76AFD21
:105090002268936943F0080393612268936923F0BF
:1050A000040393612268936929690B43936100208B
:1050B00067E00068FFF788FF2268936943F40063A4
:1050C00093612268936923F48063936122689369F2
:1050D000296943EA01239361002052E00068FFF749
:1050E00091FD2268D36943F00803D3612268D36934
:1050F00023F00403D3612268D36929690B43D36188
:1051000000203EE00068FFF7C3FD2268D36943F446
:105110000063D3612268D36923F48063D36122687A
:10512000D369296943EA0123D361002029E000689B
:10513000FFF7F4FD2268136D43F00803136522683E
:10514000136D23F0040313652268136D29690B4363
:105150001365002015E00068FFF714FE2268136D48
:1051600043F4006313652268136D23F480631365B1
:105170002268136D296943EA01231365002000E0CA
:105180000120002384F83C3038BD0220FCE710B435
:10519000846824F47F4C42EA03220A4342EA0C0268
:1051A000826010BC7047000090F83C30012B00F08A
:1051B0008F8010B50446012380F83C30022380F82C
:1051C0003D3002689068434B034093600B68702B3E
:1051D00055D031D8502B6CD00CD9602B2AD1CA684D
:1051E00049682068FFF716FE60212068FFF725FE5A
:1051F000002035E0402B0AD1CA6849682068FFF7D3
:10520000F7FD40212068FFF718FE002028E05BD85A
:10521000202B07D003D9302B04D0012020E00BB184
:10522000102B05D119462068FFF707FE002017E074
:10523000012015E0012013E0B3F5005F2CD00BD95D
:10524000254A9342EED012D9244A9342EAD0303212
:105250009342E7D0012003E0B3F5805F36D1002010
:10526000012384F83D30002384F83C3010BDB3F1B5
:10527000101FD7D0103A9342D4D00120F0E7CB686A
:105280004A6889682068FFF782FF2268936843F0C4
:10529000770393600020E3E7CB684A688968206859
:1052A000FFF775FF2268936843F480439360002002
:1052B000D6E7CA6849682068FFF79AFD5021206840
:1052C000FFF7BBFD0020CBE70120C9E70120C7E7BE
:1052D000022070478800CEFF300010004000100010
:1052E00001F01F01012303FA01FC036A23EA0C0306
:1052F0000362036A02FA01F10B4303627047000084
:1053000010B504460846002947D194F83E30DBB278
:10531000013B18BF0123002B40F09480002867D187
:10532000022384F83E30012201462068FFF7D8FFAF
:105330002368474A93420FD002F5006293420BD094
:1053400002F54062934207D002F58062934203D097
:1053500002F58062934203D15A6C42F400425A64CF
:1053600023683B4A93425FD0B3F1804F5CD0A2F5F3
:105370009432934258D002F58062934254D002F5A1
:105380009632934250D002F5406293424CD01A6854
:1053900042F001021A60002055E004290CD00829CF
:1053A00011D00C2916D010291BD094F84330DBB251
:1053B000013B18BF0123AEE794F83F30DBB2013B5D
:1053C00018BF0123A7E794F84030DBB2013B18BFB8
:1053D0000123A0E794F84130DBB2013B18BF012361
:1053E00099E794F84230DBB2013B18BF012392E702
:1053F000042809D008280BD00C280DD010280FD075
:10540000022384F843308EE7022384F83F308AE792
:10541000022384F8403086E7022384F8413082E793
:10542000022384F842307EE799680A4A0A40062A35
:105430000AD0B2F5803F09D01A6842F001021A6022
:10544000002000E0012010BD0020FCE70020FAE76A
:10545000002C01400700010038B504460D4600222B
:105460000068FFF73DFF2368284A93420FD002F5FA
:10547000006293420BD002F54062934207D002F5DE
:105480008062934203D002F5806293420DD1196A83
:1054900041F21112114208D1196A44F244421142F8
:1054A00003D15A6C22F400425A642368196A41F20B
:1054B0001112114208D1196A44F24442114203D137
:1054C0001A6822F001021A6025B9012384F83E30DF
:1054D000002038BD042D09D0082D0BD00C2D0DD087
:1054E000102D0FD0012384F84330F1E7012384F815
:1054F0003F30EDE7012384F84030E9E7012384F8E9
:105500004130E5E7012384F84230E1E7002C014017
:1055100090F83C30012B40D030B4012380F83C306F
:10552000022380F83D300268536894681C4DAA42FB
:1055300003D005F50065AA4203D123F470034D683A
:105540002B4323F0007323F070030D682B4353604B
:105550000368134A934212D0B3F1804F0FD0A2F5E3
:10556000943293420BD002F58062934207D002F549
:105570009632934203D002F54062934204D124F064
:1055800080048A6814439C60012380F83D30002326
:1055900080F83C30184630BC70470220704700BF8E
:1055A000002C014090F83C30012B54D010B4012362
:1055B00080F83C30CB6823F440738A68134323F4AB
:1055C00080634A68134323F400630A68134323F497
:1055D00080530A69134323F400534A69134323F4A5
:1055E00080430A6B134323F470238A6943EA02431E
:1055F00002681A4CA24203D004F50064A24203D10F
:1056000023F08053CC692343144CA2420AD004F502
:105610000064A24206D05364002380F83C30184650
:1056200010BC704723F470038C6A43EA045323F0E0
:1056300080730C6A234323F000734C6A2343074CA6
:10564000A24203D004F50064A242E4D123F0005347
:10565000C96A0B43DFE70220704700BF002C0140FE
:1056600003460020A3F844004BF68072A3F84020C4
:105670007047B0F8403023F47E535B045B0CA0F815
:1056800040300020704784B0844601A880E80E00B6
:105690000123ACF840300020ACF84000ACF84400E6
:1056A000ACF8500004B0704710B503460A7830F8E3
:1056B00022C01FFA8CFC2CF4EC4C2CF0700C1FFA5E
:1056C0008CFCC878032862D8DFE800F0565D0259E8
:1056D000002048F2800E4CEA0E0C23F822C091F80C
:1056E00000C033F82C2012B222F4E04222F0700203
:1056F0004CEA020292B242EA0E0223F82C200A7B04
:10570000002A40F0C2804A78002A51D0B3F85020D5
:1057100013FA82F20C7802EBC402B1F806C04FEA29
:105720005C0C4FEA4C0CA2F800C40C7833F824202F
:1057300012F0400F0CD033F8242092B222F4E04251
:1057400022F0700242F4004242F0C00223F824200A
:10575000CA78012A1DD0097833F8212092B222F4A8
:10576000E04222F0400282F0200242F4004242F085
:10577000800223F8212066E04CF4007CA9E74CF479
:10578000C06C0020A5E74CF4806C0020A1E701204C
:105790009FE7097833F8212092B222F4E04222F008
:1057A000400242F4004242F0800223F821204AE005
:1057B000B3F8502013FA82F20C7802EBC402B1F86D
:1057C00006C04FEA5C0C4FEA4C0CA2F804C4B3F8D4
:1057D000502013FA82F20C7802EBC4020C693E2CC2
:1057E00032D94FEA541C14F01F0F01D10CF1FF3CC9
:1057F0006FEACC6C6FEA5C4C1FFA8CFCA2F806C412
:105800000C7833F8242012F4804F0CD033F8242085
:1058100092B222F4E04222F0700242F4404242F09E
:10582000800223F82420097833F8212092B222F450
:10583000804222F0700282F4405242F4004242F070
:10584000800223F8212010BD8CB9B2F80644A4B21E
:1058500024F4F844A4B2A2F80644B2F806446FEA6D
:1058600044446FEA5444A4B2A2F80644C8E74FEA9D
:10587000540C14F0010F01D00CF1010C4FEA8C2CE8
:105880001FFA8CFCA2F806C4BAE7CA78022A72D0C2
:105890000C7833F8242092B222F4E24222F0700213
:1058A00042F4004242F0800223F82420B3F8502052
:1058B00013FA82F291F800C002EBCC02B1F808C0F2
:1058C0004FEA5C0C4FEA4C0CA2F800C4B3F850202D
:1058D00013FA82F291F800C002EBCC02B1F80AC0D0
:1058E0004FEA5C0C4FEA4C0CA2F804C44A78002A38
:1058F00050D10C7833F8242012F4804F0CD033F8B8
:10590000242092B222F4E04222F0700242F440429B
:1059100042F0800223F824200C7833F8242012F07F
:10592000400F0CD033F8242092B222F4E04222F04F
:10593000700242F4004242F0C00223F8242091F8A1
:1059400000C033F82C2092B222F4804222F0700280
:1059500082F4405248F28004224323F82C20097834
:1059600033F8212092B222F4E04222F04002224396
:1059700023F8212067E70C7833F8242092B222F430
:10598000E04222F0700242F4014242F0800223F829
:1059900024208BE70C7833F8242012F4804F0CD0AD
:1059A00033F8242092B222F4E04222F0700242F452
:1059B000404242F0800223F824200C7833F824205F
:1059C00012F0400F0CD033F8242092B222F4E042BF
:1059D00022F0700242F4004242F0C00223F8242078
:1059E000CA78012A1ED00C7833F8242092B222F40F
:1059F000E04222F0400282F0200242F4004242F0F3
:105A0000800223F82420097833F8212092B222F46E
:105A1000804222F0700242F4004242F0800223F8F9
:105A2000212010E70C7833F8242092B222F4E042CF
:105A300022F0400242F4004242F0800223F8242087
:105A4000E1E70B7B002B46D14B7813B30A7830F893
:105A5000223013F0400F0CD030F822309BB223F4E8
:105A6000E04323F0700343F4004343F0C00320F805
:105A700022300A7830F822309BB223F4E04323F03E
:105A8000400343F4004343F0800320F82230002019
:105A900070470A7830F8223013F4804F0CD030F879
:105AA00022309BB223F4E04323F0700343F44043DD
:105AB00043F0800320F822300A7830F822309BB27D
:105AC00023F4804323F0700343F4004343F0800346
:105AD00020F82230DBE74B78002B4ED10A7830F8E3
:105AE000223013F4804F0CD030F822309BB223F4D4
:105AF000E04323F0700343F4404343F0800320F875
